:10000000E4EF07F00C202020544553542055415272
:1000100054204D41494E204D454E55000A0A0A20B4
:10002000202043686F6F736520616E206F70746964
:100030006F6E3A000A0A202020612E205475726EDD
:10004000204F4E204C65642E00000A0A20202062BA
:100050002E205475726E204F464620204C65642E2B
:1000600000000A0A202020632E205072696E74203E
:100070004D656E752E000A0A202020642E205265E0
:10008000616420566F6C746167652E000A0A202037
:1000900020652E205265616420427574746F6E2055
:1000A00053746174652E00000A0A202020662E20F9
:1000B000577269747465204C43442E000C0A0A2060
:1000C0004469676974616C000A20566F6C746167DB
:1000D00065000C0A0A20427574746F6E2073746197
:1000E000746500000A202020202564000C202020B8
:1000F0004C4344204D41494E204D454E55000A0A7F
:100100000A20202043686F6F736520616E206F7036
:1001100074696F6E3A000A0A202020272A272E20B1
:100120004261636B20746F204D656E7500000A0A92
:10013000202020272B272E20436C65616E205363DF
:100140007265656E2E000A0A202020277E272E2049
:100150004C696E6520627265616B2E000A0A202070
:1001600020272E272E20457869742E000C20202071
:100170004C4344204D41494E204D454E55000A0AFE
:100180000A20202043686F6F736520616E206F70B6
:1001900074696F6E3A000A0A202020272A272E2031
:1001A0004261636B20746F204D656E7500000A0A12
:1001B000202020272B272E20436C65616E2053635F
:1001C0007265656E2E000A0A202020277E272E20C9
:1001D0004C696E6520627265616B2E000A0A2020F0
:1001E00020272E272E20457869742E000A0A2045E4
:1001F00073637269626500000A0A2045736372695D
:100200006269656E646F00000C20546578746F3A03
:1002100020000C2055415254205445535421202095
:100220003A2900000A204C4544206973204F4E2093
:100230003A2900000A204C4544206973204F464665
:10024000203A28000A20596F75206861766520637E
:10025000686F73656E20616E20696E76616C69648B
:10026000206F7074696F6E210A2025630000EA6AAE
:10027000DC0EE96EEF500EE0050E016E006A002EF6
:10028000FED7012EFBD72E0E006E002EFED700D01B
:10029000EF2EF2D71200E3B102D0BD9601D0BD8699
:1002A000C596E3B302D0BD9801D0BD88C598E3B52B
:1002B00002D0BD9A01D0BD8AC59AE3B702D0BD9CD9
:1002C00001D0BD8CC59C0000BD80C590020E006EA3
:1002D000002EFED70000BD90C5901200E46BC586CD
:1002E000000ECDB6010EE413C588000ECDB8010E88
:1002F000006ED89000360050E413C58A000ECDBAC7
:10030000010E006E00360036FC0E00160050E4139D
:10031000C58C000ECDBC010E006E003600360036D6
:10032000F80E00160050E413E4C001F01200C58678
:10033000C588C58AC58CBD84C5940000BD80C590A4
:100340000000CCDF01C0E3F0BD90C5900000BD808F
:10035000C59000D000D0C2DF01C0E2F0BD90C590D2
:10036000C596C598C59AC59CE339006EF00E001677
:100370000050E211016EC3EF01F0C590C592C59423
:10038000BD92C592D4D701C0E2F001BEFBD7E053C5
:1003900002E1BD9201D0BD82C5920000BD94C5941A
:1003A0000000BD90C590E139E26F0F0EE217E2C088
:1003B000E3F071DFE1510F0BE26FE36F6CDF1200CE
:1003C000280E756F0C0E766F010E776F060E786F24
:1003D000BD90C590BD92C592BD94C594C596C59873
:1003E000C59AC59CC590C592C5940F0EDC6F3FDFC2
:1003F000010E746F7451030808E3030EE36F4BDFC3
:10040000050EDC6F34DF742BF5D7020EE36F43DF8C
:10041000050EDC6F2CDF746B7451030810E3036A64
:100420007451750FE96E000E0320EA6E6F00BCFF79
:1004300079F0E06B79C0E1F0A0DF742BEDD722EF0B
:1004400008F0DD2D01D003D0400EDE6F01D0DE6B51
:10045000010EDC5DDE27DE518009DF6FE06BE16FAE
:100460008CDF1200DB51070A07E00B0A0AE0060ADC
:1004700010E0020A14E018D0010EDC6FDD6FE1DF3E
:1004800018D0E06B010EE16F78DF020EDC6FEFDE5B
:1004900010D0010EDC6F020EDD6FD3DF0AD0E06BEF
:1004A000100EE16F6ADF05D0010EE06FDBC0E1F0F6
:1004B00064DF12000900F55211E06F00D8FFD9F097
:1004C0006F00DCFFDAF06F00D4FFDBF0CBDF600001
:1004D00067F3F6FF60006BF3F7FFECD71200C48EF2
:1004E000CCBEFED7080E006EDD6B008E0ED0009ED7
:1004F0000CD0D890CCBED880DD33008C06D0009CC8
:10050000002EF7D7DDC001F00BD03F0E00BE110E5C
:10051000016E012EFED700BEEAD700BCF0D7E9D7A6
:100520001200C49CBC9C080E016E00D00000018E1D
:100530000ED0019EDB33D8B0BC8CD8A0BC9C018C03
:1005400006D0019C012EF6D700D00000BC8C3F0ED7
:10055000E96EE92EFED7000001BEEBD701BCF1D752
:1005600012000900F55211E06F00D8FFD9F06F00BA
:10057000DCFFDAF06F00D4FFDBF0D3DF600067F35D
:10058000F6FF60006BF3F7FFECD71200040EF66E77
:10059000000EF76EE6DF1C0EF66E000EF76EE1DF62
:1005A000340EF66E000EF76EDCDF4A0EF66E000EAD
:1005B000F76ED7DF620EF66E000EF76ED2DF760EA4
:1005C000F66E000EF76ECDDF8C0EF66E000EF76E37
:1005D000C8DFA80EF66E000EF76EC3DF1200EC0E39
:1005E000F66E000EF76EBDDFFE0EF66E000EF76EB5
:1005F000B8DF160EF66E010EF76EB3DF2E0EF66E36
:10060000010EF76EAEDF460EF66E010EF76EA9DF35
:100610005C0EF66E010EF76EA4DF7FEF03F06F6BDA
:100620006C0EF66E010EF76E9CDF7E0EF66E010EFE
:10063000F76E97DF960EF66E010EF76E92DFAE0E36
:10064000F66E010EF76E8DDFC60EF66E010EF76EBA
:1006500088DFDC0EF66E010EF76E83DFEC0EF66EB1
:10066000010EF76E7EDFD86BF80EF66E010EF76E98
:1006700078DF080EF66E020EF76E1CDF036AD851A3
:10068000740FE96E000E0320EA6E6F00A8FFDCF025
:100690006F00A4FFDBF023DF600073F3EAFF60006C
:1006A0006FF3E9FF0150EF6E036AD851740FE96EE2
:1006B000000E0320EA6E6F00BCFFD9F0200EDB6F46
:1006C00030DFD9C0DBF02DDF200EDB6F2ADF036ABD
:1006D000D851740FE96E000E0320EA6E6F00BCFF64
:1006E000D9F0D9C0DBF0BEDE036AD851740FE96ED1
:1006F000000E0320EA6EEF502A0802E170D7D86B93
:10070000036AD851740FE96E000E0320EA6EEF50B1
:100710002B0804E10C0EDB6FA5DED86B036AD85101
:10072000740FE96E000E0320EA6EEF507E0804E1BC
:100730000A0EDB6F97DED86B036AD851740FE96E2F
:10074000000E0320EA6EEF502E0801E102D0D82BF4
:1007500095D71CDF12008E0E006E7CC001F07BC0AE
:1007600002F0036A015209E102C001F0026A080EB8
:10077000005E015202E1006A08D0D89001BE04D0A8
:10078000023601360006F9D7019EC9EF06F08851FE
:10079000D8B474D0006E8C51D8B470D0002604E365
:1007A000810E00266BE204D07F0E005E67E366E0F8
:1007B00089C090F08D51901B898F8D8F8B518F0345
:1007C0006F00D0FF92F08A518E036F00D0FF03F0CC
:1007D0006F00CCFF91F08F03F3509227F4509123D8
:1007E000000E03228B518E03F3509227F450912375
:1007F000000E026A0322022289518F03F3509127CF
:10080000F4500322000E022289518E03F350032676
:10081000F4500222000E016A01228B518D03F35025
:100820009127F4500322000E022201228A518D03E7
:10083000F3500326F4500222000E012289518D0349
:10084000F3500226F4500122002A01BE05D0913750
:100850000336023601360006000E91AF0AD0032A95
:1008600002220122015005E1025003E1035001E19F
:10087000002A90BF018E90AF019E04D0006A016AE9
:10088000026A036A1200800ED8B2801B856B866BE9
:100890007CC084F08051841B7B51D8B4DCD0836F42
:1008A000006E7F51D8B4E0D0835FD8B481D03DE3EF
:1008B00080C089F0898F81C088F082C087F0866B04
:1008C000D8908933883387338633832FF8D784AF22
:1008D00003D08581DDD0859183918589EA6A7E0E7A
:1008E000E96EE9D0859984BF0AD083A113D08933FA
:1008F000883387338633002AD8B4C5D00BD089BF5C
:100900000CD0D89086378737883789370006D8B417
:10091000BAD0F5D7858D6BD0859D7CC084F07CAF37
:1009200002D0898FA9D0899FA7D07FC083F07FC0D4
:1009300000F07B51835F7CC089F0898F7DC088F097
:100940007EC087F0866BD8908933883387338633AF
:10095000832FF8D784AF03D085839AD08593839172
:10096000858BEA6A820EE96EA6D0859B84BF0AD089
:1009700083A113D08933883387338633002AD8B4D0
:1009800082D00BD089BF0CD0D89086378737883774
:1009900089370006D8B477D0F5D7858F28D0859FC2
:1009A00080C084F080AF02D0898F66D0899F64D0E8
:1009B00080C089F0898F81C088F082C087F084AFC1
:1009C00004D0899F858564D08595866B8391EA6A7A
:1009D0007E0EE96E70D084BF1CD07CC084F083A1F1
:1009E00006D08933883387338633002A4CE086AFBC
:1009F0000BD0872B09E1882B07E1892B05E189338F
:100A000088338733002A3FE085BD86D785BFC7D7A7
:100A10001CD0800E891B89AF04D03AD080C084F0EE
:100A20000AD07CC084F0895306E1885304E18753DF
:100A300002E1006A21D089BF08D0D8908637873775
:100A400088378937002EF7D71ED084AF02D0898F20
:100A500013D0899F11D07FC000F080C089F081C081
:100A600088F082C087F008D07BC000F07CC089F09D
:100A70007DC088F07EC087F089C001F088C002F098
:100A800087C003F034D0006A016A026A036A2FD07B
:100A9000866B871F881F891F861F862B05E1872B82
:100AA00003E1882B01E1892B85B115D785B356D792
:100AB00085B58AD7B3D7EF50872705E3882B03E1A5
:100AC000892BD8B48381ED52EF50882703E3892B1B
:100AD000D8B48381ED52EF50EFBE01D0800A892750
:100AE000D8B0838185B9FED685BB3FD774D712EFC6
:100AF00007F08851B608886F036A89C08CF0898F27
:100B0000D89089338A338B33033202320132003278
:100B1000882FF6D78CAF0BD0001E011E021E031EBD
:100B2000002AD8B4012AD8B4022AD8B4032A0BEF79
:100B300006F0D8B203D0EA6A900EE96E006A016A44
:100B4000026A036A906B916B926B936B8F518E115B
:100B50008D118C112CE0200E946FD8908837893736
:100B60008A378B3790379137923793378F51935D10
:100B700008E18E51925D05E18D51915D02E18C514C
:100B8000905D0FE38C51905F8D51D8A08D3D915FAA
:100B90008E51D8A08E3D925F8F51D8A08F3D935F2C
:100BA000D8800036013602360336942FD6D760003F
:100BB00043F2EFFF600047F2ECFF60004BF2ECFF06
:100BC00060004FF2ECFF1200E950806F7F51826F9E
:100BD00019E07EC08BF07DC08AF07CC089F07BC0BC
:100BE00088F08F6B8E6B200E8D6F820E8C6FCFDD39
:100BF00003C07EF002C07DF001C07CF000C07BF03D
:100C0000822FE7D77EC08BF07DC08AF07CC089F050
:100C10007BC088F06ED703C07EF002C07DF001C0BB
:100C20007CF000C07BF07EAF0DD08007808B7B1FF7
:100C30007C1F7D1F7E1F7B2BD8B47C2BD8B47D2BD3
:100C4000D8B47E2B3B0E876F9A0E866FCA0E856FC7
:100C5000846B0A0E826F7F51D8B4802BD882EA6AE7
:100C60007B0EE96E7EC08BF07DC08AF07CC089F07F
:100C70007BC088F087C08FF086C08EF085C08DF075
:100C800084C08CF056DF015000520FE17F29825D55
:100C90000CE080510CE00F0B825D01E037E280BF79
:100CA00035D080BD04D0200E2DD0200E801780AB13
:100CB0000CD0809B7F51D8A480070050806F2D0EF0
:100CC000DB6F2FDC8051006E806B7F51825D0AE10B
:100CD0000050806F2E0EDB6F24DC8051006E200EE2
:100CE0008017000E300E80AB0DD0809B7F51D8A4B2
:100CF00080070050806F2D0EDB6F13DC8051006E7B
:100D0000806B300E002600C0DBF00BDCD89287C071
:100D10008BF086C08AF085C089F084C088F08F6B24
:100D20008E6B8D6B0A0E8C6F04DF03C087F002C0E0
:100D300086F001C085F000C084F0822F8FD73BEF92
:100D400007F0766B756B746B74510F0813E31F0E0D
:100D5000DC6F37EC01F03E01F8810000F8B1FED7FE
:100D60006F00C0FB03F0EF5100017527035076239D
:100D7000742BEAD776337533763375337633753320
:100D8000763375330F0E761776C07CF075C07BF026
:100D9000E2D403C07EF002C07DF001C07CF000C050
:100DA0007BF003C08BF002C08AF001C089F000C064
:100DB00088F0960E8F6F0B0E8E6F700E8D6F740E07
:100DC0008C6FE5DC03C07AF002C079F001C078F0E6
:100DD00000C077F07AC08BF079C08AF078C089F0D3
:100DE00077C088F09A0E8F6F990E8E6F8D6F7F0E81
:100DF0008C6FCDDC03C07AF002C079F001C078F0CE
:100E000000C077F0D8827AC07EF079C07DF078C0DB
:100E10007CF077C07BF0826B816BA00E806F810EBF
:100E20007F6F31D503C07AF002C079F001C078F04D
:100E300000C077F0BC0EF66E000EF76EB1EC02F05B
:100E4000C80EF66E000EF76EB1EC02F00A0EDB6F04
:100E500091EC02F0200EDB6F91EC02F0890EE96E4E
:100E60007AC07EF079C07DF078C07CF077C07BF0EE
:100E7000020E7F6FA9D6040E7B6FFA0EDC6F37EC83
:100E800001F07B2FFAD77DEF08F009006F00D8FF43
:100E900077F06F00DCFF78F06F00D4FFDBF091ECAF
:100EA00002F06000DFF1F6FF6000E3F1F7FF762F5C
:100EB000ECD712007D51016A7C5D03E27CC000F03A
:100EC0000CD0006A080E7E6F7C3700367D51005CC6
:100ED000D8B0006E01367E2FF7D71200200E77A90A
:100EE000300E786F76C000F076AF08D0001E002A72
:100EF00000C076F02D0E786F778F7781015076C025
:100F00007CF0640E7D6FD6DF00C076F0300E0124D9
:100F1000796F76C07CF00A0E7D6FCCDF300E002436
:100F20007B6F300E01247A6F78C000F0300E795D4F
:100F300004E0778377BF778512D078C079F0200EF0
:100F4000786F300E7A5D04E0778177BF778307D0C2
:100F5000D8A4778104E179C07AF0200E796F77B553
:100F600005D077B307D077B109D00CD078C0DBF0CB
:100F700091EC02F079C0DBF091EC02F07AC0DBF08A
:100F800091EC02F07BC0DBF091EC02F0E2EF07F0B5
:100F9000C3807491CBB07481D20EF66E000EF76EE2
:100FA000B1EC02F0000E74B1010E756FE40EF66E36
:100FB000000EF76E050E766F68DF75C076F0180EBE
:100FC000776F8CD77DEF08F03901E58FE59DF86AE2
:100FD000D29ADE6BDB6BDD6B050EDF6F600ED96FB7
:100FE000C49CBC8C0A9000016F6B716B706B3A01F2
:100FF000406B506B606B706B806B3E01BD6BBE6B6A
:10100000BF6BBC6BB96BBA6BBB6BB86B046A056A20
:10101000000EFD6F010E3A01406F000E506F606FC1
:10102000706F806F0A0E3E01FA6FFB6B070EFF6F49
:10103000F36BEC6B840EF86FFB0EC26EBA9400017A
:10104000E0EF01F0640EDC6F37EC01F0120EF66E8B
:10105000020EF76E5AEC02F0CCBE04D06FEC02F038
:1010600001C072F0040E746FFA0EDC6F37EC01F001
:10107000742FFAD7C6EC02F00AA002D00FEC03F0EE
:10108000CCBE3BD06FEC02F001C073F07351610A2B
:101090000BE0030A13E0010A1BE0070A1CE0010A47
:1010A0001CE0030A1CE01ED0FB0EC26EBA84240EA4
:1010B000F66E020EF76EB1EC02F01FD0FB0EC26EA0
:1010C000BA94340EF66E020EF76EB1EC02F015D043
:1010D000C6EC02F012D035D610D05AD70ED00FEC95
:1010E00003F00BD0440EF66E020EF76E260E766FEE
:0E10F000CCDE73C0DBF091EC02F0BED7030043
:020000040030CA
:0A000000FCFFF3FC9FFFFFDFFFFF92
:00000001FF
;PIC18F46K42
;CRC=6FFD  CREATED="26-nov.-19 08:04"
